:100000000C942A000C9447000C94E90A0C944700C5
:100010000C9447000C9447000C9447000C94470044
:100020000C9447000C9447000C9447000C94470034
:100030000C9447000C9447000C9447000C94470024
:100040000C9447000C9447000C9447000C94470014
:100050000C94470011241FBECFE5D4E0DEBFCDBF16
:1000600010E0A0E6B0E0E0ECF3E202C005900D92F3
:10007000AE36B107D9F713E0AEE6B0E001C01D928D
:10008000A43AB107E1F70E9449000C94DE110C94E8
:100090000000DF93CF93CDB7DEB72E970FB6F8945D
:1000A000DEBF0FBECDBF0E9488020E94A1020E9447
:1000B000B90180E090E0AFE7B3E48B879C87AD8720
:1000C000BE876B857C858D859E8520E030E04AEF7C
:1000D00054E40E943F0DDC01CB018F839887A987F0
:1000E000BA876F81788589859A8520E030E040E87D
:1000F0005FE30E94990E88232CF481E090E09E83B8
:100100008D833FC06F81788589859A8520E03FEF98
:100110004FE757E40E94390E18164CF56B857C8525
:100120008D859E8520E030E040E251E40E943F0D45
:10013000DC01CB01BC01CD010E94690BDC01CB01CC
:100140009E838D830FC088EC90E09C838B838B8192
:100150009C810197F1F79C838B838D819E81019710
:100160009E838D838D819E81009769F714C06F8176
:10017000788589859A850E94690BDC01CB019E8375
:100180008D838D819E819A83898389819A8101974C
:10019000F1F79A8389830E9455030E94DA000E9436
:1001A0002C010E9495010E94D40A0E9404010E9421
:1001B0007803FBCFDF93CF93CDB7DEB7ABE3B0E0EF
:1001C000EBE3F0E0808181608C93AAE3B0E0EAE3A6
:1001D000F0E0808181608C93A6E2B0E0E6E2F0E09E
:1001E000808186688C93A7E2B0E0E7E2F0E080814E
:1001F000856E8C93A6E2B0E0E6E2F0E08081806458
:100200008C93CF91DF910895DF93CF930F92CDB769
:10021000DEB7E6E2F0E08081882F90E08074907095
:100220000097B9F7E5E2F0E080818983898188371A
:1002300040F4ABE3B0E0EBE3F0E080818E7F8C93A1
:1002400007C0ABE3B0E0EBE3F0E0808181608C932A
:100250000F90CF91DF910895DF93CF93CDB7DEB7A5
:10026000AAE3B0E0EAE3F0E080818D7F8C93AAE31B
:10027000B0E0EAE3F0E080818B7F8C93AAE3B0E00A
:10028000EAE3F0E08081877F8C93AAE3B0E0EAE3C1
:10029000F0E080818F7E8C93A1E3B0E0E1E3F0E0B9
:1002A00080818E7F8C93A1E3B0E0E1E3F0E0808178
:1002B0008D7F8C93A1E3B0E0E1E3F0E080818B7F60
:1002C0008C93ABE3B0E0EBE3F0E0808182608C9351
:1002D000ABE3B0E0EBE3F0E0808184608C93ABE3D0
:1002E000B0E0EBE3F0E0808188608C93ABE3B0E0BA
:1002F000EBE3F0E0808180618C93A2E3B0E0E2E385
:10030000F0E0808181608C93A2E3B0E0E2E3F0E072
:10031000808182608C93A2E3B0E0E2E3F0E0808130
:1003200084608C93CF91DF910895DF93CF93CDB705
:10033000DEB7A1E3B0E0E1E3F0E08081877F8C935A
:10034000A2E3B0E0E2E3F0E08081877F8C93A5E553
:10035000B0E0E5E5F0E080818C608C93ABE5B0E047
:10036000EBE5F0E0808180688C937894CF91DF9109
:100370000895DF93CF93CDB7DEB72E970FB6F894DD
:10038000DEBF0FBECDBFA7E3B0E0E7E3F0E08081C2
:1003900084608C93A7E3B0E0E7E3F0E080818160C4
:1003A0008C93A7E3B0E0E7E3F0E0808182608C9378
:1003B000A8E3B0E0E8E3F0E080818D7F8C9380E0FB
:1003C00090E0A0E2B1E48B879C87AD87BE876B8508
:1003D0007C858D859E8520E030E04AEF54E40E94C4
:1003E0003F0DDC01CB018F839887A987BA876F8186
:1003F000788589859A8520E030E040E85FE30E94B7
:10040000990E88232CF481E090E09E838D833FC079
:100410006F81788589859A8520E03FEF4FE757E423
:100420000E94390E18164CF56B857C858D859E854E
:1004300020E030E040E251E40E943F0DDC01CB01BE
:10044000BC01CD010E94690BDC01CB019E838D8331
:100450000FC088EC90E09C838B838B819C810197FB
:10046000F1F79C838B838D819E8101979E838D8381
:100470008D819E81009769F714C06F817885898589
:100480009A850E94690BDC01CB019E838D838D814F
:100490009E819A83898389819A810197F1F79A8352
:1004A0008983A8E3B0E0E8E3F0E0808182608C9388
:1004B00080E40E94070381EA0E94070380EC0E9407
:1004C000070384EA0E94070386EA0E94070382EA80
:1004D0000E9407038FE20E94070387E20E9407033E
:1004E00081E80E94070380E10E9407038AEF0E94CF
:1004F000070380E90E9407038FEA0E9407032E96F4
:100500000FB6F894DEBF0FBECDBFCF91DF91089537
:10051000DF93CF93CDB7DEB7A7E3B0E0E7E3F0E03A
:10052000808188608C93A3E5B0E0E3E5F0E0808112
:100530008A668C93ECE5F0E080E48083CF91DF91D4
:100540000895DF93CF93CDB7DEB7A7E3B0E0E7E33D
:10055000F0E0808180618C93A7E3B0E0E7E3F0E016
:10056000808180628C93A7E3B0E0E7E3F0E08081D4
:100570008F7B8C93A7E3B0E0E7E3F0E080818068B5
:100580008C93A8E3B0E0E8E3F0E0808180618C9395
:10059000ADE2B0E0EDE2F0E0808181658C93CF9137
:1005A000DF910895DF93CF930F92CDB7DEB78983A4
:1005B000EFE2F0E089818083EEE2F0E08081882341
:1005C000DCF70F90CF91DF910895DF93CF930F92D7
:1005D000CDB7DEB78983A8E3B0E0E8E3F0E080813F
:1005E0008E7F8C93A8E3B0E0E8E3F0E08081846044
:1005F0008C9389810E94D202A8E3B0E0E8E3F0E0A6
:10060000808181608C930F90CF91DF910895DF936B
:10061000CF930F92CDB7DEB78983A8E3B0E0E8E3CC
:10062000F0E080818E7F8C93A8E3B0E0E8E3F0E017
:1006300080818B7F8C9389810E94D202A8E3B0E0F5
:10064000E8E3F0E0808181608C930F90CF91DF919F
:100650000895DF93CF9300D0CDB7DEB78A838A8128
:10066000806B898389810E9407030F900F90CF913F
:10067000DF910895DF93CF9300D00F92CDB7DEB70F
:100680008B838B818F708A838B8182958F70806141
:1006900089838A810E94070389810E9407030F9042
:1006A0000F900F90CF91DF910895DF93CF9300D0FB
:1006B000CDB7DEB71A8214C08A810E94290319823D
:1006C00009C089810E943A0380E00E94E502898185
:1006D0008F5F898389818636A0F38A818F5F8A83C1
:1006E0008A81883048F30F900F90CF91DF91089561
:1006F0000F931F93DF93CF93CDB7DEB7CA54D0408B
:100700000FB6F894DEBF0FBECDBF0E9455030E9406
:100710003208CE0187969E012D5E3F4FB9010E949F
:100720005F0881E08A8B85E0888B1F861E861D8688
:100730001C868CEB92E09B878A87FE01ED5BFF4F66
:100740001082FE01ED5BFF4F1182FE01ED5BFF4F5A
:100750001282FE01ED5BFF4F13821092A10386E02F
:100760008093A0038889282F30E0CE018F5B9F4FB4
:10077000B9010E948C08FE01EF5BFF4F8081482F7A
:1007800050E0FE01EF5BFF4F8181282F30E0CA016E
:10079000B9010E94CE0881E28093A30382E3809393
:1007A0009E0381E0898708C08985882F90E00E9498
:1007B000280989858F5F8987998588898917A0F796
:1007C0002C853D858A859B85281739070CF4AAC19D
:1007D0001D861C868E85882309F044C080916000A8
:1007E000282F30E02B963FAF2EAF2B972B964EAD98
:1007F0005FAD2B974230510521F12B968EAD9FAD09
:100800002B978330910544F42B962EAD3FAD2B975B
:100810002130310581F026C02B964EAD5FAD2B9770
:1008200043305105A1F02B968EAD9FAD2B978430B0
:10083000910599F017C08091A30381508093A30381
:1008400011C08091A3038F5F8093A3030BC080919D
:100850009E03815080939E0305C080919E038F5F0D
:1008600080939E031E868091A30390919E03692F1F
:1008700048890E94110A882391F48091A3039091E2
:100880009E034091A1039E012D5E3F4FFE01B7964E
:10089000692F8F010E94480A882309F4B0C0809113
:1008A0009E03482F50E08091A303869586958695F8
:1008B000282F30E0CA01880F991F880F991F880FD1
:1008C000991F820F931FFC01E259FF4F8081282F4F
:1008D00030E08091A303882F90E087709070A90189
:1008E00002C0559547958A95E2F7CA0181709070CC
:1008F000882359F48091A30390919E03692F41E0CE
:100900000E94110A882309F47AC00E9455030E94AC
:100910003208CE0187969E012D5E3F4FB9010E949D
:100920005F0885E0888B81E0809360001092A103CE
:1009300086E08093A0038889282F30E0CE018F5B6A
:100940009F4FB9010E948C08FE01EF5BFF4F808131
:10095000482F50E0FE01EF5BFF4F8181282F30E0F0
:10096000CA01B9010E94CE0881E28093A30382E309
:1009700080939E031F8618861F822DC02F81388585
:10098000CE018796FC01E20FF31F8081482F50E0D3
:100990002F813885CE014396FC01E20FF31F808141
:1009A000282F30E0CA01B9010E94B6092F8138858D
:1009B000CE018796FC01E20FF31F10822F8138854C
:1009C000CE014396FC01E20FF31F10828F819885C0
:1009D000019698878F838F8198858431910574F271
:1009E00081E0898708C08985882F90E00E942809C6
:1009F00089858F5F8987998588898917A0F7809174
:100A0000A303482F50E080919E03282F30E0CA01B5
:100A1000B9010E94CE088091A103282F30E04091B7
:100A20009E03CE014396FC01E20FF31F40838091A9
:100A3000A103282F30E04091A303CE018796FC014B
:100A4000E20FF31F40839091A1038091A0039817B8
:100A500008F463C01C821B8246C08FA1482F50E05F
:100A60008B89282F30E0CA01B9010E94B6091E8285
:100A70001D822BC04D815E818D819E819C012F5FE7
:100A80003F4FCE014396FC01E20FF31F2081CE01C0
:100A90004396FC01E40FF51F20834D815E818D811B
:100AA0009E819C012F5F3F4FCE018796FC01E20F94
:100AB000F31F2081CE018796FC01E40FF51F2083F0
:100AC0008D819E8101969E838D838091A103282F25
:100AD00030E08D819E818217930764F28B819C8127
:100AE00001969C838B838091A103282F30E0809115
:100AF000A003882F90E0A901481B590BCA019C0153
:100B00002F5F3F4F8B819C81821793070CF4A5CFF9
:100B10008091A0038093A10305C08091A1038F5F02
:100B20008093A103FE01EF5BFF4F90818091A303AF
:100B3000981799F4FE01EF5BFF4F918180919E031E
:100B4000981759F48091A003833138F48091A00361
:100B50008F5F8093A00381E08F878F85813011F5AF
:100B600088898F5F888B8889282F30E0CE018F5B42
:100B70009F4FB9010E948C088889882F90E00E94BD
:100B800028091F86FE01EF5BFF4F8081482F50E050
:100B9000FE01EF5BFF4F8181282F30E0CA01B901D0
:100BA0000E94CE08FE01EF5BFF4F8081482F50E08E
:100BB000FE01EF5BFF4F8181282F30E0CA01B901B0
:100BC0000E94CE08E0E3F0E08081882F90E0827000
:100BD0009070009709F09CC08091A003843008F4C5
:100BE00097C08A89813009F093C01A8A8091A00346
:100BF00081508093A00381E08A8380916000282F38
:100C000030E029963FAF2EAF299729964EAD5FADC4
:100C1000299742305105B9F129968EAD9FAD29979C
:100C20008330910544F429962EAD3FAD29972130AC
:100C3000310589F06DC029964EAD5FAD29974330DF
:100C40005105C1F129968EAD9FAD2997843091054C
:100C500009F448C05DC0FE01ED5BFF4F12828A813E
:100C60008195FE01ED5BFF4F838380919E03FE0122
:100C7000ED5BFF4F80838091A3038150FE01ED5B0C
:100C8000FF4F818345C0FE01ED5BFF4F10828A81DB
:100C9000FE01ED5BFF4F838380919E03FE01ED5BC0
:100CA000FF4F80838091A3038F5FFE01ED5BFF4FB9
:100CB00081832EC08A818195FE01ED5BFF4F828387
:100CC000FE01ED5BFF4F138280919E038150FE0178
:100CD000ED5BFF4F80838091A303FE01ED5BFF4F2F
:100CE000818316C08A81FE01ED5BFF4F8283FE0186
:100CF000ED5BFF4F138280919E038F5FFE01ED5BE2
:100D0000FF4F80838091A303FE01ED5BFF4F818342
:100D1000E0E3F0E08081882F90E08470907000978D
:100D200029F48CE291E09B878A8704C08CEB92E0E7
:100D30009B878A878A89882309F08EC1FE01ED5B33
:100D4000FF4F9181FE01EF5BFF4F8081981791F576
:100D5000FE01ED5BFF4F9081FE01EF5BFF4F818154
:100D6000981741F581E08F878091A0038F5F809372
:100D7000A003FE01ED5BFF4F808180939E03FE0187
:100D8000ED5BFF4F81818093A303FE01ED5BFF4F7D
:100D90001082FE01ED5BFF4F118281E08A8BFE0124
:100DA000ED5BFF4F1282FE01ED5BFF4F1382198A4C
:100DB00081E08E87FE01ED5BFF4F9081FE01ED5BD0
:100DC000FF4F8281890FFE01ED5BFF4F8083FE01A3
:100DD000ED5BFF4F9181FE01ED5BFF4F8381890F3A
:100DE000FE01ED5BFF4F8183FE01ED5BFF4F8181D3
:100DF000FE01ED5BFF4F9081692F48890E949D0A9B
:100E0000882309F4BCC0FE01ED5BFF4F8081482FB1
:100E100050E0FE01ED5BFF4F8181869586958695BA
:100E2000282F30E0CA01880F991F880F991F880F5B
:100E3000991F820F931FFC01E259FF4F8081282FD9
:100E400030E0FE01ED5BFF4F8181882F90E08770DD
:100E50009070A90102C0559547958A95E2F7CA019D
:100E600081709070882309F48AC019861EC0FE0123
:100E7000ED5BFF4F8181882F90E0AC014E5F5F4FAB
:100E8000FE01ED5BFF4F8081882F90E09C012F5F7A
:100E90003F4F8985882F90E0281B390BCA01B90183
:100EA0000E94B60989858F5F898789858330F8F22A
:100EB00019822CC0198624C0FE01ED5BFF4F818191
:100EC000882F90E09C012F5F3F4F8981882F90E011
:100ED000A901481B590BFE01ED5BFF4F8081882F54
:100EE00090E09C012E5F3F4F8985882F90E0281B62
:100EF000390BCA01B9010E94B60989858F5F8987BC
:100F000089858530C8F289818F5F898389818330A3
:100F100088F219861EC0FE01ED5BFF4F8181882F8C
:100F200090E0AC0142505040FE01ED5BFF4F8081EC
:100F3000882F90E09C012F5F3F4F8985882F90E09C
:100F4000281B390BCA01B9010E94B60989858F5F38
:100F5000898789858330F8F281E08A8BFE01ED5B19
:100F6000FF4F1082FE01ED5BFF4F1182FE01ED5B32
:100F7000FF4F1282FE01ED5BFF4F1382198AFE01C3
:100F8000ED5BFF4F8181482F50E0FE01ED5BFF4F8D
:100F90008081282F30E0CA01B9010E94CE088989DA
:100FA000282F30E0FE01ED5BFF4F4081CE01CB9654
:100FB000FC01E20FF31F40838989282F30E0FE01F6
:100FC000ED5BFF4F4181CE01CE96FC01E20FF31F96
:100FD000408389898823E9F18EAD482F50E08BAD9D
:100FE000282F30E0CA01B9010E94B60919862DC028
:100FF0008985482F50E08985882F90E09C012F5FDC
:101000003F4FCE01CB96FC01E20FF31F2081CE01B2
:10101000CB96FC01E40FF51F20838985482F50E013
:101020008985882F90E09C012F5F3F4FCE01CE969F
:10103000FC01E20FF31F2081CE01CE96FC01E40FEC
:10104000F51F208389858F5F89878985882381F2B1
:1010500003C089898F5F898B8C859D8501969D87CB
:101060008C87AECBDF93CF9300D0CDB7DEB71A829B
:101070001EC0198216C08981482F50E08A81282F0E
:1010800030E0CA01880F991F880F991F880F991F98
:10109000820F931FFC01E259FF4F108289818F5FFD
:1010A00089838981863638F38A818F5F8A838A8132
:1010B0008830F8F20F900F90CF91DF910895DF9371
:1010C000CF9300D000D00F92CDB7DEB79B838A8339
:1010D0007D836C83198215C08981282F30E08A8135
:1010E0009B81FC01E20FF31F10828981282F30E0E1
:1010F0008C819D81FC01E20FF31F108289818F5F3B
:1011000089838981843140F30F900F900F900F9065
:101110000F90CF91DF910895DF93CF9300D00F927E
:10112000CDB7DEB79A8389836B830E947211AC01BD
:101130008B81282F30E083E390E0821B930B880F94
:10114000991F9C0123503040CA01B9010E94C3106D
:10115000982F8B81890F8F5FE981FA8181830E94AB
:101160007211AC018B81882F90E0880F991F9095A8
:1011700081959F4F9C01235C3F4FCA01B9010E949A
:10118000C310982F8B81890F8F5FE981FA8180834B
:101190000F900F900F90CF91DF910895DF93CF9331
:1011A00000D0CDB7DEB789836A838981869586951D
:1011B00086958093A2038981877080939F03809195
:1011C000A2030E9429038A810E943A0380919F030F
:1011D000282F30E081E090E002C0880F991F2A9507
:1011E000E2F7682F8A81482F50E08091A203282FD0
:1011F00030E0CA01880F991F880F991F880F991F27
:10120000820F931FFC01E259FF4F8081862B809350
:101210009F038A81482F50E08091A203282F30E05D
:1012200060919F03CA01880F991F880F991F880F2B
:10123000991F820F931FFC01E259FF4F6083809139
:101240009F030E94E5020F900F90CF91DF910895C8
:10125000DF93CF9300D00F92CDB7DEB78B838B8116
:1012600081508B838B81882F90E09A8389830DC076
:10127000298195E68B81981B822F692F0E94CE08C9
:1012800089819A8101969A8389838B81282F30E006
:1012900080E490E0AC01421B530B9A0189819A8152
:1012A000821793072CF38B81882F90E09A83898390
:1012B00009C089816B810E94CE0889819A8101963B
:1012C0009A8389838B81282F30E080E490E0AC0101
:1012D000421B530B9A0189819A81821793074CF321
:1012E0008B81882F90E09A8389830AC099818B81B2
:1012F000692F0E94CE0889819A8101969A838983F9
:101300008B81282F30E086E690E0AC01421B530B26
:101310009A0189819A818217930744F38B81882FE0
:1013200090E09A8389830EC09FE38B81592F581BCD
:10133000852F9981692F0E94CE0889819A81019613
:101340009A8389838B81282F30E086E690E0AC0178
:10135000421B530B9A0189819A818217930724F3C8
:101360000F900F900F90CF91DF910895DF93CF935F
:1013700000D0CDB7DEB789836A838981869586954B
:1013800086958093A2038981877080939F038091C3
:10139000A2030E9429038A810E943A038A81482F6E
:1013A00050E08091A203282F30E0CA01880F991FD6
:1013B000880F991F880F991F820F931FFC01E25914
:1013C000FF4F8081482F80919F03282F30E081E0DC
:1013D00090E002C0880F991F2A95E2F78095842338
:1013E00080939F038A81482F50E08091A203282F89
:1013F00030E060919F03CA01880F991F880F991FE1
:10140000880F991F820F931FFC01E259FF4F6083E1
:1014100080919F030E94E5020F900F90CF91DF9182
:101420000895DF93CF9300D000D0CDB7DEB7898386
:101430006A834B8399818B819817F0F08981482FBB
:1014400050E08B81282F30E08FE390E0821B930BDC
:10145000841795078CF09A818B81981768F08A81A0
:10146000482F50E08B81282F30E086E690E0821BE9
:10147000930B841795071CF481E08C8301C01C82B8
:101480008C810F900F900F900F90CF91DF91089566
:101490000F931F93DF93CF93CDB7DEB72A970FB685
:1014A000F894DEBF0FBECDBF8A836B834C833E832F
:1014B0002D8318870F838D819E81FC013496808156
:1014C000882361F119821EC08981282F30E08F8125
:1014D0009885FC01E20FF31F90818A81981779F4B7
:1014E0008981282F30E08D819E81FC01E20FF31F5E
:1014F00090818B81981719F481E0898710C08981C8
:101500008F5F89838981282F30E08C81882F90E03C
:10151000019728173907C4F2198601C002C08985CE
:101520008A878A852A960FB6F894DEBF0FBECDBF94
:10153000CF91DF911F910F910895DF93CF9300D04A
:1015400000D0CDB7DEB789836A834B8399818B81C5
:101550009817F0F08981482F50E08B81282F30E0D8
:101560008FE390E0821B930B841795078CF09A8190
:101570008B81981768F08A81482F50E08B81282F43
:1015800030E085E690E0821B930B841795071CF4EE
:1015900081E08C8301C01C828C810F900F900F9092
:1015A0000F90CF91DF910895DF93CF93CDB7DEB742
:1015B000A4E3B0E0E4E3F0E0808181608C93A5E3F4
:1015C000B0E0E5E3F0E080818E7F8C93CF91DF91F6
:1015D00008951F920F920FB60F9211248F939F932D
:1015E000EF93FF93DF93CF9300D00F92CDB7DEB789
:1015F000E9E3F0E08081882F90E08270907000979E
:1016000039F480916000823019F081E080936000AD
:10161000E9E3F0E08081882F90E08470907000977B
:1016200039F480916000813019F082E0809360008D
:10163000E9E3F0E08081882F90E088709070009757
:1016400039F480916000843019F083E08093600069
:10165000E9E3F0E08081882F90E08071907000973E
:1016600039F480916000833019F084E08093600049
:10167000E0E3F0E08081882F90E081709070009727
:10168000D1F48CE590E09B838A83ECE5F0E08081E7
:10169000882359F0ECE5F0E08081882F90E0880FF6
:1016A000991F880F991F898302C091E099838981CE
:1016B000EA81FB8180830F900F900F90CF91DF9193
:1016C000FF91EF919F918F910F900FBE0F901F9000
:1016D0001895EF92FF920F931F937B018C0120E0EE
:1016E00030E040E05FE40E94690E88238CF0C8017E
:1016F000B70120E030E040E05FE40E94E10C0E948E
:10170000C90E9B01AC01205030404040504806C0FB
:10171000C801B7010E94C90E9B01AC01B901CA0101
:101720001F910F91FF90EF900895A0E0B0E0EBE9DA
:10173000FBE00C94EA10DC012B01FA019C91923041
:1017400008F439C1EB018881823008F433C1943048
:1017500069F4843009F02FC111969C911197898109
:10176000981709F428C1A1E6B0E025C1843009F436
:1017700021C18230A9F4923009F01DC19A01AD0156
:1017800088E0EA010990AE01E90109929E018150C9
:10179000C1F7E201898111969C918923818308C157
:1017A000923009F407C112962D903C901397EB01EB
:1017B0008A819B811496AD90BD90CD90DC90179757
:1017C000EC80FD800E811F819101281B390BB9012E
:1017D00037FF04C066277727621B730B60327105E1
:1017E0000CF061C0121613066CF537014801062E85
:1017F00004C096948794779467940A94D2F721E072
:1018000030E040E050E004C0220F331F441F551F5A
:101810006A95D2F721503040404050402E213F2160
:1018200040235123211531054105510521F021E0C7
:1018300030E040E050E079018A01E628F7280829E5
:1018400019293CC0232BD1F1260E371E3501460144
:10185000062E04C096948794779467940A94D2F7DE
:1018600021E030E040E050E004C0220F331F441F6D
:10187000551F6A95D2F721503040404050402A21F0
:101880003B214C215D21211531054105510521F0F8
:1018900021E030E040E050E059016A01A628B72875
:1018A000C828D9280BC0821593052CF01C01AA2446
:1018B000BB24650103C0EE24FF24870111969C918F
:1018C000D20111968C91981709F445C0992339F0EB
:1018D000A80197012A193B094C095D0906C0A60118
:1018E00095012E193F09400B510B57FD08C011827D
:1018F0003382228224833583468357831DC081E04F
:1019000081833382228288279927DC01821B930BF3
:10191000A40BB50B84839583A683B7830DC0220FD8
:10192000331F441F551F2483358346835783828189
:1019300093810197938382832481358146815781E6
:10194000DA01C9010197A109B1098F5F9F4FAF4F1C
:10195000BF4328F30BC0918333822282EA0CFB1C25
:101960000C1D1D1DE482F5820683178383E08083AE
:10197000248135814681578157FF1AC0C901AA27A2
:1019800097FDA095BA2F81709070A070B070569599
:10199000479537952795822B932BA42BB52B8483C2
:1019A0009583A683B78382819381019693838283F3
:1019B000DF0101C0D201CD01CDB7DEB7E2E10C9469
:1019C0000611A0E2B0E0E7EEFCE00C94F6106983AB
:1019D0007A838B839C832D833E834F835887E9E0F2
:1019E000EE2EF12CEC0EFD1ECE010196B7010E94E9
:1019F000F20F8E010F5E1F4FCE010596B8010E94B7
:101A0000F20F8A8991E089278A8BC701B801AE015C
:101A1000475E5F4F0E94950B0E941D0FA096E6E067
:101A20000C941211A0E2B0E0E8E1FDE00C94F61095
:101A300069837A838B839C832D833E834F8358876E
:101A4000F9E0EF2EF12CEC0EFD1ECE010196B70150
:101A50000E94F20F8E010F5E1F4FCE010596B80156
:101A60000E94F20FC701B801AE01475E5F4F0E94AE
:101A7000950B0E941D0FA096E6E00C941211A0E2B7
:101A8000B0E0E5E4FDE00C94EA1069837A838B838F
:101A90009C832D833E834F835887CE010196BE01E0
:101AA000675F7F4F0E94F20FCE010596BE016F5E09
:101AB0007F4F0E94F20F9985923088F08989823099
:101AC000C8F0943019F4823051F404C0843029F401
:101AD000923081F481E690E0C6C0923049F420E073
:101AE0009A858A89981321E02A87CE010996BBC07E
:101AF000823049F420E09A858A89981321E02A8B64
:101B0000CE014196B0C02D843E844F8458886D88A4
:101B10007E888F88988CEE24FF248701AA24BB241A
:101B2000650140E050E060E070E0E0E0F0E0C1011D
:101B300081709070892BE9F0E60CF71C081D191DC7
:101B40009A01AB012A0D3B1D4C1D5D1D80E090E00C
:101B5000A0E0B0E0E614F7040805190520F481E0E0
:101B600090E0A0E0B0E0BA01A901480F591F6A1F38
:101B70007B1FAA0CBB1CCC1CDD1C97FE08C081E09F
:101B800090E0A0E0B0E0A82AB92ACA2ADB2A319660
:101B9000E032F10549F0660C771C881C991C5694BC
:101BA000479437942794C3CFFA85EA892B893C89D7
:101BB0008B859C85280F391F2E5F3F4F17C0CA01A8
:101BC00081709070892B61F016950795F794E794D2
:101BD00080E090E0A0E0B0E8E82AF92A0A2B1B2B6D
:101BE00076956795579547952F5F3F4F77FDE7CFE0
:101BF0000CC0440F551F661F771F17FD4160EE0C88
:101C0000FF1C001F111F21503040403090E0590749
:101C100090E0690790E4790760F32B8F3C8FDB013C
:101C2000CA018F779070A070B07080349105A105C3
:101C3000B10561F447FD0AC0E114F1040105110585
:101C400029F0405C5F4F6F4F7F4F40781A8EFE1730
:101C500011F081E08A8F4D8F5E8F6F8F78A383E0C4
:101C6000898FCE0149960E941D0FA096E2E10C9447
:101C70000611A8E1B0E0EFE3FEE00C94F6106983F2
:101C80007A838B839C832D833E834F83588789E09F
:101C9000E82EF12CEC0EFD1ECE010196B7010E943C
:101CA000F20F8E010F5E1F4FCE010596B8010E9404
:101CB000F20F8985823040F08989823028F0C7018F
:101CC000B8010E946A1001C08FEF6896E6E00C949C
:101CD0001211A8E1B0E0EFE6FEE00C94F610698383
:101CE0007A838B839C832D833E834F83588789E03F
:101CF000E82EF12CEC0EFD1ECE010196B7010E94DC
:101D0000F20F8E010F5E1F4FCE010596B8010E94A3
:101D1000F20F8985823040F08989823028F0C7012E
:101D2000B8010E946A1001C08FEF6896E6E00C943B
:101D30001211A8E1B0E0EFE9FEE00C94F61069831F
:101D40007A838B839C832D833E834F83588789E0DE
:101D5000E82EF12CEC0EFD1ECE010196B7010E947B
:101D6000F20F8E010F5E1F4FCE010596B8010E9443
:101D7000F20F8985823040F08989823028F0C701CE
:101D8000B8010E946A1001C081E06896E6E00C94F8
:101D90001211ACE0B0E0EFECFEE00C94FA106983B5
:101DA0007A838B839C83CE010196BE016B5F7F4F4C
:101DB0000E94F20F8D81823061F1823050F18430C7
:101DC00021F48E81882351F12EC02F81388537FD73
:101DD00020C06E812F3131051CF06623F9F023C03D
:101DE0008EE190E0821B930B29853A854B855C85BB
:101DF00004C056954795379527958A95D2F766235F
:101E0000B1F050954095309521953F4F4F4F5F4F22
:101E10000EC020E030E040E050E009C02FEF3FEF7F
:101E20004FEF5FE704C020E030E040E050E8B90148
:101E3000CA012C96E2E00C941611DF92EF92FF9209
:101E40000F931F93FC01E480F58006811781D180F8
:101E50008081823048F480E090E0A0E1B0E0E82AA0
:101E6000F92A0A2B1B2BA5C0843009F49FC08230AD
:101E700021F4EE24FF24870105C0E114F1040105DB
:101E8000110519F4E0E0F0E096C0628173819FEFE4
:101E9000623879070CF05BC022E83FEF261B370B56
:101EA0002A3131052CF020E030E040E050E02AC03B
:101EB000B801A701022E04C07695679557954795FE
:101EC0000A94D2F781E090E0A0E0B0E004C0880F6F
:101ED000991FAA1FBB1F2A95D2F70197A109B10923
:101EE0008E219F21A023B1230097A105B10521F0E8
:101EF00081E090E0A0E0B0E09A01AB01282B392B03
:101F00004A2B5B2BDA01C9018F779070A070B070FB
:101F100080349105A105B10539F427FF09C0205C83
:101F20003F4F4F4F5F4F04C0215C3F4F4F4F5F4FBC
:101F3000E0E0F0E02030A0E03A07A0E04A07A0E4AB
:101F40005A0710F0E1E0F0E079018A0127C060381B
:101F5000710564F5FB01E158FF4FD801C7018F7788
:101F60009070A070B07080349105A105B10539F46E
:101F7000E7FE0DC080E490E0A0E0B0E004C08FE395
:101F800090E0A0E0B0E0E80EF91E0A1F1B1F17FF4B
:101F900005C016950795F794E794319687E0169556
:101FA0000795F794E7948A95D1F705C0EE24FF24AE
:101FB0008701EFEFF0E06E2F679566276795902F0A
:101FC0009F77D794DD24D7948E2F8695492F462B63
:101FD000582F5D29B701CA011F910F91FF90EF9013
:101FE000DF900895FC01DB01408151812281622F45
:101FF0006F7770E0221F2227221F9381892F880F7D
:10200000822B282F30E0991F9927991F11969C93B6
:10201000119721153105A9F5411551056105710586
:1020200011F482E037C082E89FEF13969C938E9361
:1020300012979A01AB0167E0220F331F441F551F0F
:102040006A95D1F783E08C930DC0220F331F441F94
:10205000551F12968D919C911397019713969C93FF
:102060008E931297203080E0380780E0480780E4A4
:10207000580758F314962D933D934D935C931797FF
:1020800008952F3F310579F441155105610571051A
:1020900019F484E08C93089564FF03C081E08C936D
:1020A00012C01C9210C02F57304013963C932E93B1
:1020B000129783E08C9387E0440F551F661F771FAC
:1020C0008A95D1F7706414964D935D936D937C93CC
:1020D000179708951F93DC01FB019C91923008F43F
:1020E00047C08081823008F443C0943051F4119687
:1020F0001C91843099F58181682F70E0611B710912
:102100003FC0843021F0923031F48230B9F18181C6
:10211000882389F12DC011961C9111978230F1F01E
:1021200081811817D9F412962D913C9113978281D1
:1021300093818217930794F028173907BCF01496FF
:102140008D919D910D90BC91A02D2481358146816A
:102150005781281739074A075B0718F4112341F004
:102160000AC082179307A407B50740F4112319F09A
:1021700061E070E005C06FEF7FEF02C060E070E0EB
:10218000CB011F91089597FB092E07260AD077FDF2
:1021900004D00CD006D000201AF4709561957F4FC2
:1021A0000895F6F7909581959F4F0895AA1BBB1B44
:1021B00051E107C0AA1FBB1FA617B70710F0A61B47
:1021C000B70B881F991F5A95A9F780959095BC0168
:1021D000CD0108952F923F924F925F926F927F921E
:1021E0008F929F92AF92BF92CF92DF92EF92FF9227
:1021F0000F931F93CF93DF93CDB7DEB7CA1BDB0BD3
:102200000FB6F894DEBF0FBECDBF09942A88398877
:1022100048885F846E847D848C849B84AA84B9847E
:10222000C884DF80EE80FD800C811B81AA81B9818A
:10223000CE0FD11D0FB6F894DEBF0FBECDBFED019E
:102240000895A0E0B0E0E7E2F1E10C94F210EC01B7
:10225000A880B980CA80DB80A114B104C104D10474
:1022600041F484E2A82E89EDB82E8BE5C82E87E0D4
:10227000D82EC601B5012DE133EF41E050E00E94B8
:10228000A11127EA31E440E050E00E9482117B0175
:102290008C01C601B5012DE133EF41E050E00E9411
:1022A000A111CA01B9012CEE34EF4FEF5FEF0E948C
:1022B00082116E0D7F1D801F911F97FF04C061501A
:1022C000704080409048688379838A839B839B0118
:1022D0003F77C901CDB7DEB7EAE00C940E110E943A
:1022E0002111089589E690E00E9421110895A0E04F
:1022F000B0E08093690090936A00A0936B00B09364
:102300006C000895629FD001739FF001829FE00DE1
:10231000F11D649FE00DF11D929FF00D839FF00D64
:10232000749FF00D659FF00D9927729FB00DE11D10
:10233000F91F639FB00DE11DF91FBD01CF011124ED
:10234000089597FB092E05260ED057FD04D014D012
:102350000AD0001C38F450954095309521953F4F98
:102360004F4F5F4F0895F6F7909580957095619562
:102370007F4F8F4F9F4F0895A1E21A2EAA1BBB1BC0
:10238000FD010DC0AA1FBB1FEE1FFF1FA217B30741
:10239000E407F50720F0A21BB30BE40BF50B661F57
:1023A000771F881F991F1A9469F76095709580951B
:1023B00090959B01AC01BD01CF010895F894FFCF2A
:0E23C00001000000000000000001000000000D
:00000001FF
